{
  "_format": "hh-sol-artifact-1",
  "contractName": "VoteApp",
  "sourceName": "contracts/VoteApp.sol",
  "abi": [
    {
      "inputs": [],
      "stateMutability": "nonpayable",
      "type": "constructor"
    },
    {
      "anonymous": false,
      "inputs": [
        {
          "indexed": false,
          "internalType": "uint256",
          "name": "votes",
          "type": "uint256"
        },
        {
          "indexed": false,
          "internalType": "address",
          "name": "voter",
          "type": "address"
        },
        {
          "indexed": false,
          "internalType": "string",
          "name": "voted",
          "type": "string"
        }
      ],
      "name": "voteUpdate",
      "type": "event"
    },
    {
      "inputs": [
        {
          "internalType": "string",
          "name": "_post",
          "type": "string"
        }
      ],
      "name": "addpost",
      "outputs": [],
      "stateMutability": "nonpayable",
      "type": "function"
    },
    {
      "inputs": [
        {
          "internalType": "string",
          "name": "_post",
          "type": "string"
        }
      ],
      "name": "getVotes",
      "outputs": [
        {
          "internalType": "uint256",
          "name": "upvotes",
          "type": "uint256"
        },
        {
          "internalType": "uint256",
          "name": "downvotes",
          "type": "uint256"
        }
      ],
      "stateMutability": "view",
      "type": "function"
    },
    {
      "inputs": [],
      "name": "owner",
      "outputs": [
        {
          "internalType": "address",
          "name": "",
          "type": "address"
        }
      ],
      "stateMutability": "view",
      "type": "function"
    },
    {
      "inputs": [
        {
          "internalType": "string",
          "name": "_post",
          "type": "string"
        },
        {
          "internalType": "string",
          "name": "_updown",
          "type": "string"
        }
      ],
      "name": "vote",
      "outputs": [],
      "stateMutability": "nonpayable",
      "type": "function"
    },
    {
      "inputs": [
        {
          "internalType": "uint256",
          "name": "",
          "type": "uint256"
        }
      ],
      "name": "voteArray",
      "outputs": [
        {
          "internalType": "string",
          "name": "",
          "type": "string"
        }
      ],
      "stateMutability": "view",
      "type": "function"
    }
  ],
  "bytecode": "0x608060405234801561001057600080fd5b50336000806101000a81548173ffffffffffffffffffffffffffffffffffffffff021916908373ffffffffffffffffffffffffffffffffffffffff160217905550610d8a806100606000396000f3fe608060405234801561001057600080fd5b50600436106100575760003560e01c8063805265e51461005c5780638da5cb5b1461008d578063db46e82b146100ab578063e218e7cd146100db578063e8d5940d146100f7575b600080fd5b61007660048036038101906100719190610798565b610113565b6040516100849291906107fa565b60405180910390f35b61009561014c565b6040516100a29190610864565b60405180910390f35b6100c560048036038101906100c091906108ab565b610170565b6040516100d29190610960565b60405180910390f35b6100f560048036038101906100f09190610798565b61021c565b005b610111600480360381019061010c9190610982565b61025b565b005b60008060006002846040516101289190610a36565b90815260200160405180910390209050806001015481600001549250925050915091565b60008054906101000a900473ffffffffffffffffffffffffffffffffffffffff1681565b6001818154811061018057600080fd5b90600052602060002001600091509050805461019b90610a7c565b80601f01602080910402602001604051908101604052809291908181526020018280546101c790610a7c565b80156102145780601f106101e957610100808354040283529160200191610214565b820191906000526020600020905b8154815290600101906020018083116101f757829003601f168201915b505050505081565b60018190806001815401808255809150506001900390600052602060002001600090919091909150908051906020019061025792919061059b565b5050565b60405160200161026a90610afa565b60405160208183030381529060405280519060200120816040516020016102919190610a36565b6040516020818303038152906040528051906020012014806102fc57506040516020016102bd90610b5b565b60405160208183030381529060405280519060200120816040516020016102e49190610a36565b60405160208183030381529060405280519060200120145b61033b576040517f08c379a000000000000000000000000000000000000000000000000000000000815260040161033290610bbc565b60405180910390fd5b60028260405161034b9190610a36565b908152602001604051809103902060020160003373ffffffffffffffffffffffffffffffffffffffff1673ffffffffffffffffffffffffffffffffffffffff16815260200190815260200160002060010160009054906101000a900460ff16156103ea576040517f08c379a00000000000000000000000000000000000000000000000000000000081526004016103e190610c28565b60405180910390fd5b60006002836040516103fc9190610a36565b9081526020016040518091039020905060018160020160003373ffffffffffffffffffffffffffffffffffffffff1673ffffffffffffffffffffffffffffffffffffffff16815260200190815260200160002060010160006101000a81548160ff02191690831515021790555060405160200161047890610afa565b604051602081830303815290604052805190602001208260405160200161049f9190610a36565b6040516020818303038152906040528051906020012014156104da578060010160008154809291906104d090610c77565b9190505550610548565b6040516020016104e990610b5b565b60405160208183030381529060405280519060200120826040516020016105109190610a36565b6040516020818303038152906040528051906020012014156105475780600001600081548092919061054190610c77565b91905055505b5b7f97ef0bfe1fb9969c77388f2558b13f886d64b7a1d422844dd71e194a56fab1ca8160000154826001015461057d9190610cc0565b338560405161058e93929190610d16565b60405180910390a1505050565b8280546105a790610a7c565b90600052602060002090601f0160209004810192826105c95760008555610610565b82601f106105e257805160ff1916838001178555610610565b82800160010185558215610610579182015b8281111561060f5782518255916020019190600101906105f4565b5b50905061061d9190610621565b5090565b5b8082111561063a576000816000905550600101610622565b5090565b6000604051905090565b600080fd5b600080fd5b600080fd5b600080fd5b6000601f19601f8301169050919050565b7f4e487b7100000000000000000000000000000000000000000000000000000000600052604160045260246000fd5b6106a58261065c565b810181811067ffffffffffffffff821117156106c4576106c361066d565b5b80604052505050565b60006106d761063e565b90506106e3828261069c565b919050565b600067ffffffffffffffff8211156107035761070261066d565b5b61070c8261065c565b9050602081019050919050565b82818337600083830152505050565b600061073b610736846106e8565b6106cd565b90508281526020810184848401111561075757610756610657565b5b610762848285610719565b509392505050565b600082601f83011261077f5761077e610652565b5b813561078f848260208601610728565b91505092915050565b6000602082840312156107ae576107ad610648565b5b600082013567ffffffffffffffff8111156107cc576107cb61064d565b5b6107d88482850161076a565b91505092915050565b6000819050919050565b6107f4816107e1565b82525050565b600060408201905061080f60008301856107eb565b61081c60208301846107eb565b9392505050565b600073ffffffffffffffffffffffffffffffffffffffff82169050919050565b600061084e82610823565b9050919050565b61085e81610843565b82525050565b60006020820190506108796000830184610855565b92915050565b610888816107e1565b811461089357600080fd5b50565b6000813590506108a58161087f565b92915050565b6000602082840312156108c1576108c0610648565b5b60006108cf84828501610896565b91505092915050565b600081519050919050565b600082825260208201905092915050565b60005b838110156109125780820151818401526020810190506108f7565b83811115610921576000848401525b50505050565b6000610932826108d8565b61093c81856108e3565b935061094c8185602086016108f4565b6109558161065c565b840191505092915050565b6000602082019050818103600083015261097a8184610927565b905092915050565b6000806040838503121561099957610998610648565b5b600083013567ffffffffffffffff8111156109b7576109b661064d565b5b6109c38582860161076a565b925050602083013567ffffffffffffffff8111156109e4576109e361064d565b5b6109f08582860161076a565b9150509250929050565b600081905092915050565b6000610a10826108d8565b610a1a81856109fa565b9350610a2a8185602086016108f4565b80840191505092915050565b6000610a428284610a05565b915081905092915050565b7f4e487b7100000000000000000000000000000000000000000000000000000000600052602260045260246000fd5b60006002820490506001821680610a9457607f821691505b60208210811415610aa857610aa7610a4d565b5b50919050565b7f7570000000000000000000000000000000000000000000000000000000000000600082015250565b6000610ae46002836109fa565b9150610aef82610aae565b600282019050919050565b6000610b0582610ad7565b9150819050919050565b7f646f776e00000000000000000000000000000000000000000000000000000000600082015250565b6000610b456004836109fa565b9150610b5082610b0f565b600482019050919050565b6000610b6682610b38565b9150819050919050565b7f756e76616c696420766f74696e67000000000000000000000000000000000000600082015250565b6000610ba6600e836108e3565b9150610bb182610b70565b602082019050919050565b60006020820190508181036000830152610bd581610b99565b9050919050565b7f796f75206861766520616c726561647920766f74656400000000000000000000600082015250565b6000610c126016836108e3565b9150610c1d82610bdc565b602082019050919050565b60006020820190508181036000830152610c4181610c05565b9050919050565b7f4e487b7100000000000000000000000000000000000000000000000000000000600052601160045260246000fd5b6000610c82826107e1565b91507fffffffffffffffffffffffffffffffffffffffffffffffffffffffffffffffff821415610cb557610cb4610c48565b5b600182019050919050565b6000610ccb826107e1565b9150610cd6836107e1565b9250827fffffffffffffffffffffffffffffffffffffffffffffffffffffffffffffffff03821115610d0b57610d0a610c48565b5b828201905092915050565b6000606082019050610d2b60008301866107eb565b610d386020830185610855565b8181036040830152610d4a8184610927565b905094935050505056fea264697066735822122087367b1e39898ad24bc0344e185c1a936239cfaa66d919b6c424d41a00d9194064736f6c63430008090033",
  "linkReferences": {},
  "deployedLinkReferences": {}
}